:030000000204BA3D
:0C04BA00787FE4F6D8FD75816102050131
:1006D800C0F9A4B0999282F880908883C6A1868ECA
:1006E800313233263435362537383928301B0D2733
:10061A00064CFFFFFFFFFFFF10520101010101011C
:10062A000101010101010101010104210000000091
:10063A00042500000000012900C180102A010101DF
:10064A0001010101010101010101010101013A0058
:10065A00103BFFFFFFFFFFFFFFFFFFFFFFFFFFFF53
:05066A00FFFF014B0041
:1006F800D2AFD293C294758901758CFC758A67D282
:0F0708008CD2A99006D8E493F54C12054680FBDD
:080415008F0E8E0D8D0C8C0B77
:10041D00EC3350107510011201A18F0E8E0D8D0C45
:10042D008C0B8003E4F510E4F50FE47B0AFAF9F880
:10043D00AF0EAE0DAD0CAC0B120670AF03741125E3
:10044D000FF8A607AF0EAE0DAD0CAC0BE47B0AFAA0
:10045D00F9F81206708F0E8E0D8D0C8C0B050FE5B5
:10046D000FB406C6750F057411250FF8E6700A74E2
:10047D004C250FF876FFD50FEEE5106010C3E50F94
:10048D00648094855007744D250FF876BFC3E50F32
:10049D006480948040167411250FF8E69006D89369
:0C04AD00FF744C250FF8A607150F80E126
:0104B9002220
:02000E008F0A57
:10001000E50AC394304046E50AD39439503FE47F63
:100020000AFEFDFCAB28AA27A926A825120152A882
:1000300004A905AA06AB07E50A24D0FFE434FFFEB5
:10004000E4FCFDEB2FF528EA3EF527ED39F526EC2B
:1000500038F525AF28AE27AD26FC02014EE50A642F
:10006000267023120350EE3395E08F248E23F52261
:10007000F521C200E4F528F527F526F525F529AD8B
:1000800022AC2102014EE50A64287024120350EECE
:100090003395E08F248E23F522F521C200E4F52864
:1000A000F527F526F525752901AD22AC2102014E73
:1000B000E50A64257024120350EE3395E08F248EF8
:1000C00023F522F521C200E4F528F527F526F525CC
:1000D000752902AD22AC2102014EE50A6427702386
:1000E000120350EE3395E08F248E23F522F521C2C2
:1000F00000E4F528F527F526F525752903AD22AC92
:1001000021804BE50A640D7023120350EE3395E015
:100110008F248E23F522F521C200E4F528F527F57A
:1001200026F525752904AD22AC218022E50AB41BF1
:1001300020D200E4F529F528F527F526F525F52444
:10014000F523F522F521AF28AE27AD26AC25120404
:010150001599
:01015100228B
:1003500085240F85230E85220D85210C8528138584
:0E0360002712852611852510A2009201AF29D3
:10036E0030011BE50F2513F50FE50E3512F50EE5E1
:10037E000D3511F50DE50C3510F50C020410EF14CA
:10038E00602714603F14605114606B24047073E591
:10039E000F2513F50FE50E3512F50EE50D3511F59A
:1003AE000DE50C3510F50C8059C3E50F9513F50FBF
:1003BE00E50E9512F50EE50D9511F50DE50C951062
:1003CE00F50C803EAF0FAE0EAD0DAC0CAB13AA12FA
:1003DE00A911A8101201528013AF0FAE0EAD0DACC5
:1003EE000CAB13AA12A911A8101206708F0F8E0E45
:1003FE008D0D8C0C800C850F0F850E0E850D0D85C9
:07040E000C0CAE0EAF0F2233
:10054600E4F508E4F509E50825E025E02452250947
:10055600F8E6FFE50825E025E0242A2509F8E6FE69
:100566006F603DEE6020E50825E025E024E8F58291
:10057600E43406F583E5822509F582E43583F583BF
:10058600E493FF12000EE50825E025E02452250934
:10059600F8E6FFE50825E025E0242A2509F8A60760
:1005A6000509E509C39404409D0508E508C39404BC
:0205B600409172
:0105B8002220
:10027D00E53A25E025E0243BF8E625E0FFA2A4E4DD
:10028D00334FFFE53A25E025E0243BF8A607E53A94
:10029D0025E025E0243CF8E625E0FFA2A5E4334F58
:1002AD00FFE53A25E025E0243CF8A607E53A25E0F0
:1002BD0025E0243DF8E625E0FFA2A6E4334FFFE557
:1002CD003A25E025E0243DF8A607E53A25E025E0AE
:1002DD00243EF8E625E0FFA2A7E4334FFFE53A25DB
:1002ED00E025E0243EF8A607E4FFE53A25E025E009
:1002FD00243B2FF8E6540FFE700EE53A25E025E07D
:10030D0024522FF8E4F6800FBE0F0CE53A25E025B8
:10031D00E024522FF876010FBF04CF053A533A036C
:10032D00E53A14600F14601114601324037013D296
:10033D00A0C2A322D2A3C2A222D2A2C2A122D2A122
:02034D00C2A04C
:01034F00228B
:1005B9007580FFE54B14601C14602514602E1460CF
:1005C9003714604024057048C292C291C290054B0D
:1005D900854C8022C292C291D290054B854D8022D2
:1005E900C292D291C290054B854E8022C292D2917D
:1005F900D290054B854F8022D292C291C290054B71
:1006090085508022D292C291D290E4F54B855180D7
:0106190022BE
:03000B000206B436
:1006B400C0E0C0D075D000C000C006C007758CFC77
:1006C400758A671205B912027DD007D006D000D012
:0406D400D0D0E03270
:1004C6000206F8E493A3F8E493A34003F68001F24E
:1004D60008DFF48029E493A3F85407240CC8C33337
:1004E600C4540F4420C8834004F456800146F6DF06
:1004F600E4800B010204081020408090061AE47E76
:10050600019360BCA3FF543F30E509541FFEE493FA
:10051600A360010ECF54C025E060A840B8E493A3C1
:10052600FAE493A3F8E493A3C8C582C8CAC583CAEC
:10053600F0A3C8C582C8CAC583CADFE9DEE780BEA4
:01066F00008A
:10015200E88FF0A4CC8BF0A42CFCE98EF0A42CFC4C
:100162008AF0EDA42CFCEA8EF0A4CDA8F08BF0A4CA
:100172002DCC3825F0FDE98FF0A42CCD35F0FCEB29
:100182008EF0A4FEA9F0EB8FF0A4CFC5F02ECD39EE
:0F019200FEE43CFCEAA42DCE35F0FDE43CFC225B
:10067000C2D5E830E70FB2D5E4C39BFBE49AFAE4B5
:1006800099F9E498F8EC30E717B2D51206A61201F2
:10069000EBE4C39BFBE49AFAE499F9E498F880034D
:1006A0001201EB30D50DE4C39FFFE49EFEE49DFDF7
:0406B000E49CFC22A8
:0E01A100C3E49FFFE49EFEE49DFDE49CFC226F
:1001AF0075F008758200EF2FFFEE33FECD33CDCC07
:1001BF0033CCC58233C5829BED9AEC99E58298408A
:1001CF000CF582EE9BFEED9AFDEC99FC0FD5F0D667
:1001DF00E4CEFBE4CDFAE4CCF9A88222B800C1B991
:1001EF000059BA002DEC8BF084CFCECDFCE5F0CBCF
:1001FF00F97818EF2FFFEE33FEED33FDEC33FCEB08
:10020F0033FB10D703994004EB99FB0FD8E5E4F9C2
:10021F00FA227818EF2FFFEE33FEED33FDEC33FCAF
:10022F00C933C910D7059BE99A4007EC9BFCE99AA3
:10023F00F90FD8E0E4C9FAE4CCFB2275F010EF2FE8
:10024F00FFEE33FEED33FDCC33CCC833C810D707E8
:10025F009BEC9AE899400AED9BFDEC9AFCE899F823
:0E026F000FD5F0DAE4CDFBE4CCFAE4C8F922B6
:00000001FF
