:03000000020225D4
:0C022500787FE4F6D8FD75810A02026CB7
:10013500FFFFFFFFFFFFFFFFFF7FFFFFFFFFFF7FCA
:10014500FF3F7F7F7F7F7F3FFF1F3F3F3F3F3F1F3A
:10015500FF0F9F9F9F9F9F0FFF87CFCFCFCFCF874A
:10016500FFC3E7E7E7E7E7C3FFE1737373F3F3E182
:10017500FF7039393979F9F0FF381C1C1C3C7CF8C3
:10018500FF9C0E0E0E1E3E7CFFCE0707070F1F3E7F
:10019500FF67030303070F9FFF330101010387CFA8
:1001A500FF9900000081C3E7FFCC808080C0E1F3A8
:1001B500FFE6C0C0C0E0F0F9FF736060607078FCD6
:1001C500FF39303030383C7EFF9C9898989C1E3F14
:1001D500FFCECCCCCCCE0F1FFF6766666667070FD8
:1001E500FF33333333330387FF999999999981C342
:1001F500FFCCCCCCCCCCC0E1FFE6E6E6E6E6E0F011
:10020500FFF3F3F3F3F3F0F8FFF9F9F9F9F9F8FC73
:10021500FFFCFCFCFCFCFCFEFFFEFEFEFEFEFEFF02
:0902C60001080001091D010A00F4
:1002B100D2AFC293C294758901758CFC758A67D2DD
:0502C1008CD2A980FEB3
:03000B0002000EE2
:0F000E00C0E0C0F0C083C082C0D075D000C00079
:10001D00758CFC758A677580FFE508B40800400390
:10002D0002010E900037F828287302004F02006776
:10003D0002007F0200960200AD0200C40200DB0246
:10004D0000F2C292C291C2900508E50975F008A4AC
:10005D002435F582E43401020108C292C291D29096
:10006D000508E50975F008A42436F582E43401028B
:10007D000108C292D291C2900508E50975F008A455
:10008D002437F582E434018072C292D291D2900568
:10009D0008E50975F008A42438F582E43401805B85
:1000AD00D292C291C2900508E50975F008A42439D1
:1000BD00F582E434018044D292C291D2900508E5D4
:1000CD000975F008A4243AF582E43401802DD2920A
:1000DD00D291C2900508E50975F008A4243BF5827C
:1000ED00E434018016D292D291D290750800E509C0
:1000FD0075F008A4243CF582E43401F583E493F50E
:10010D0080050AE50AC394964011750A00E509D3E6
:0B011D00940040041509800375091DC3
:0D012800D000D0D0D082D083D0F0D0E03213
:100231000202B1E493A3F8E493A34003F68001F230
:1002410008DFF48029E493A3F85407240CC8C333CE
:10025100C4540F4420C8834004F456800146F6DF9D
:10026100E4800B01020408102040809002C6E47E65
:10027100019360BCA3FF543F30E509541FFEE49392
:10028100A360010ECF54C025E060A840B8E493A359
:10029100FAE493A3F8E493A3C8C582C8CAC583CA84
:1002A100F0A3C8C582C8CAC583CADFE9DEE780BE3C
:0102CF00002E
:00000001FF
