:030000000200CA31
:0C00CA00787FE4F6D8FD75810702000382
:1000A800C0F9A4B0999282F880908883C6A1868E00
:1000B8000000000000010001000001010100000132
:0200C800000135
:10000300E4F9FFFEFBFAC294D2939000B89324FF65
:100013009292A3E49324FF9291A3E49324FF9290FA
:10002300758901758CFC758A66D28C308DFDC28D05
:10003300758CFC758A66EE75F003A424B8F582E42A
:100043003400F583E49324FF9292EE75F003A42425
:10005300B9F582E43400F583E49324FF9291EE75BD
:10006300F003A424BAF582E43400F583E49324FF77
:100073009290EF9000A893F5800EEEC3940640ABE8
:10008300E4FE09E994A640A3E4F97580FFFAFB0BAB
:10009300BB00010ABA75F8BB31F50FEFC3941040EA
:0500A3008AE4FF8086E5
:00000001FF
