:0300000002013DBD
:0C013D00787FE4F6D8FD75810B02018488
:1001C90081BDBD81BFBFBF81C3DBDBC3E7DBDBC350
:1001D900819F9FCFE7F3F9F9C7F3F9EDD5D9DBE7AC
:1001E900C3DBFBC3DFDDE3FF8793999E009F9F9FDE
:1001F900C1BFBF8FF18FBFC1C3999CCFF3F9FC81F8
:10020900C3C9CCCFCFCFCF00C399BDBDBDBD99C3A5
:0A022E00010800010900020A0000A7
:10021900D2AFC293C294758901758CFC758A67D275
:05022900A9D28C80FE4B
:03000B0002000EE2
:0F000E00C0E0C0F0C083C082C0D075D000C00079
:10001D00758CFC758A677580FFE508B40800400390
:10002D0002010E900037F828287302004F02006776
:10003D0002007F0200960200AD0200C40200DB0246
:10004D0000F2C292C291C2900508E50975F008A4AC
:10005D0024C9F582E43401020108C292C291D29002
:10006D000508E50975F008A424CAF582E4340102F7
:10007D000108C292D291C2900508E50975F008A455
:10008D0024CBF582E434018072C292D291D29005D4
:10009D0008E50975F008A424CCF582E43401805BF1
:1000AD00D292C291C2900508E50975F008A424CD3D
:1000BD00F582E434018044D292C291D2900508E5D4
:1000CD000975F008A424CEF582E43401802DD29276
:1000DD00D291C2900508E50975F008A424CFF582E8
:1000ED00E434018016D292D291D290750800E509C0
:1000FD0075F008A424D0F582E43401F583E493F57A
:10010D0080050BE50B7002050AB4E817E50AB40388
:10011D0012750A00750B000509E509D39409400312
:03012D0075090051
:0D013000D000D0D0D082D083D0F0D0E0320B
:10014900020219E493A3F8E493A34003F68001F2B1
:1001590008DFF48029E493A3F85407240CC8C333B7
:10016900C4540F4420C8834004F456800146F6DF86
:10017900E4800B010204081020408090022EE47EE6
:10018900019360BCA3FF543F30E509541FFEE4937B
:10019900A360010ECF54C025E060A840B8E493A342
:1001A900FAE493A3F8E493A3C8C582C8CAC583CA6D
:1001B900F0A3C8C582C8CAC583CADFE9DEE780BE25
:0102380000C5
:00000001FF
