:030000000202B445
:0C02B400787FE4F6D8FD7581580202FB4B
:10053600313233263435362537383928301B0D27E6
:080546000E0C0D090B03070662
:10042D001049010101010101010101010101010158
:10043D000101044500000000C1000221000010234D
:10044D00010101010101010101010101010101018F
:10045D000133001034FFFFFFFFFFFFFFFFFFFFFF22
:0A046D00FFFFFFFFFF014400C10183
:10054E00D2AF758901758CFC758A67D28CD2A912CF
:04055E0003BA80FB61
:100505008F0E8E0D8D0C8C0BC2AFE47FEC7E0FFD34
:10051500FCAB0EAA0DA90CA80B120020E47B687A8F
:1005250001F9F81204C18F488E478D468C45D2AF2C
:0105350022A3
:0E056200C2AFE4F548F547F546F545D2AF22A5
:020226008F0A3D
:10022800E50AC394304023E50AD39439501CAE2123
:10023800AF227C007D0A12000EE50A24D0FDEC34C2
:10024800FFCD2FF522ED3EF52122E50AB42603C2A3
:100258000022E50AB42803D20022E50AB4250A7F61
:100268005A7E007D007C00800DE50AB4270B7FA62E
:100278007EFF7DFF7CFF020505E50A640D701FAE59
:1002880021AF222000067C017D6880047CFE7D98D9
:1002980012000EEE3395E0FDFC1205058008E50A14
:0B02A800B41B08120562E4F521F522EA
:0102B3002228
:1003BA00E4F508E4F509E50825E025E024492509DE
:1003CA00F8E6FFE50825E025E024232509F8E6FEFE
:1003DA006F603DEE6020E50825E025E02436F582D1
:1003EA00E43405F583E5822509F582E43583F5834E
:1003FA00E493FF120226E50825E025E024492509B1
:10040A00F8E6FFE50825E025E024232509F8A607F4
:10041A000509E509C39404409D0508E508C3940449
:02042A004091FF
:01042C0022AD
:10015300E53325E025E02434F8E625E0FFA2A4E416
:10016300334FFFE53325E025E02434F8A607E533D4
:1001730025E025E02435F8E625E0FFA2A5E4334F8A
:10018300FFE53325E025E02435F8A607E53325E030
:1001930025E02436F8E625E0FFA2A6E4334FFFE589
:1001A3003325E025E02436F8A607E53325E025E0EE
:1001B3002437F8E625E0FFA2A7E4334FFFE5332514
:1001C300E025E02437F8A607E4FFE53325E025E042
:1001D30024342FF8E6540FFE700EE53325E025E0B6
:1001E30024492FF8E4F6800FBE0F0CE53325E025F4
:1001F300E024492FF876010FBF04CF0533533303AF
:10020300E53314600F14601114601324037013D2C8
:10021300A0C2A322D2A3C2A222D2A2C2A122D2A14D
:02022300C2A077
:0102250022B6
:10034000AF48AE47AD46AC45EC4D4E4F6068E4FF5C
:10035000FEFDFCAB48AA47A946A845D312006F4052
:100360001F054453440774FF2548F548E54734FF0B
:10037000F547E54634FFF546E54534FFF54580266B
:10038000AF48AE47AD46AC45EC33501A1544534424
:1003900007E4FAF9F8EF2401F548EA3EF547E93DAC
:1003A000F546E83CF545AF905307F0E54490054627
:0903B0009342078F902243900F45
:0103B9002221
:03000B0002047874
:10047800C0E0C0F0C083C082C0D075D000C000C04A
:0D04880001C002C003C004C005C006C007CB
:10049500758CFC758A67120153B201300103120392
:0104A5004016
:1004A600D007D006D005D004D003D002D001D000AA
:0B04B600D0D0D082D083D0F0D0E03254
:1002C00002054EE493A3F8E493A34003F68001F201
:1002D00008DFF48029E493A3F85407240CC8C3333F
:1002E000C4540F4420C8834004F456800146F6DF0E
:1002F000E4800B010204081020408090042DE47E6D
:10030000019360BCA3FF543F30E509541FFEE49302
:10031000A360010ECF54C025E060A840B8E493A3C9
:10032000FAE493A3F8E493A3C8C582C8CAC583CAF4
:10033000F0A3C8C582C8CAC583CADFE9DEE780BEAC
:010477000084
:10000E00EF8DF0A4A8F0CF8CF0A428CE8DF0A42E06
:02001E00FE22C0
:10002000E88FF0A4CC8BF0A42CFCE98EF0A42CFC7F
:100030008AF0EDA42CFCEA8EF0A4CDA8F08BF0A4FD
:100040002DCC3825F0FDE98FF0A42CCD35F0FCEB5C
:100050008EF0A4FEA9F0EB8FF0A4CFC5F02ECD3921
:0F006000FEE43CFCEAA42DCE35F0FDE43CFC228E
:1004C100C2D5E830E70FB2D5E4C39BFBE49AFAE466
:1004D10099F9E498F8EC30E717B2D51204F7120055
:1004E100C1E4C39BFBE49AFAE499F9E498F8800328
:1004F1001200C130D50DE4C39FFFE49EFEE49DFDD3
:04050100E49CFC2258
:10006F00EB9FF5F0EA9E42F0E99D42F0EC6480C808
:06007F0064809845F022A8
:1000850075F008758200EF2FFFEE33FECD33CDCC32
:1000950033CCC58233C5829BED9AEC99E5829840B5
:1000A5000CF582EE9BFEED9AFDEC99FC0FD5F0D692
:1000B500E4CEFBE4CDFAE4CCF9A88222B800C1B9BC
:1000C5000059BA002DEC8BF084CFCECDFCE5F0CBFA
:1000D500F97818EF2FFFEE33FEED33FDEC33FCEB33
:1000E50033FB10D703994004EB99FB0FD8E5E4F9EE
:1000F500FA227818EF2FFFEE33FEED33FDEC33FCDB
:10010500C933C910D7059BE99A4007EC9BFCE99ACE
:10011500F90FD8E0E4C9FAE4CCFB2275F010EF2F13
:10012500FFEE33FEED33FDCC33CCC833C810D70713
:100135009BEC9AE899400AED9BFDEC9AFCE899F84E
:0E0145000FD5F0DAE4CDFBE4CCFAE4C8F922E1
:00000001FF
