:0300000002028970
:0C028900787FE4F6D8FD7581600202D099
:1004DA00C0F9A4B0999282F880908883C6A1868ECA
:1004EA00313233263435362537383928301B0D2733
:10046300064BFFFFFFFFFFFF1051010101010101D7
:10047300010101010101010101010421000000004A
:10048300042500000000C100102901010101010140
:1004930001010101010101010101013900103AFFCC
:1004A300FFFFFFFFFFFFFFFFFFFFFFFFFFFFFF0157
:0204B3004A00FD
:1004FA00D2AFC294D293758901758CFC758A67D282
:0F050A00A9D28C9004DAE493F54B12038F80FB97
:080315008F0E8E0D8D0C8C0B78
:10031D00E4F50FE47B0AFAF9F8AF0EAE0DAD0CACB7
:10032D000B12005CAF037410250FF8A607AF0EAECD
:10033D000DAD0CAC0BE47B0AFAF9F812005C8F0ED4
:10034D008E0D8D0C8C0B050FE50FB406C6750F05C4
:10035D007410250FF8E6700A744B250FF876FFD54B
:10036D000FEEC3E50F6480948040167410250FF8CE
:10037D00E69004DA93FF744B250FF8A607150F804E
:01038D00E18E
:01038E00224C
:0201CF008F0A95
:1001D100E50AC39430404BE50AD394395044AE2725
:1001E100AF281205197C007D0A12000EE50A24D001
:1001F100FDEC34FFCD2FFFED3EFE3395E08F288ED1
:1002010027F526F525FDAC25120315300079AF2819
:10021100AE27AD26AC251200EE8F288E278D268CB9
:100221002522E50AB42602800EE50AB42804D2008C
:100231008007E50AB40D2DC200E5242528F524E543
:10024100233527F523E5223526F522E5213525F548
:1002510021E4F528F527F526F525AF24AE23AD22B7
:10026100AC218020E50AB41B1EC200E4F528F52765
:10027100F526F525F524F523F522F521AF28AE273E
:07028100AD26AC25120315A8
:010288002253
:10038F00E4F508E4F509E50825E025E02451250901
:10039F00F8E6FFE50825E025E024292509F8E6FE23
:1003AF006F603DEE6020E50825E025E024EAF58248
:1003BF00E43404F583E5822509F582E43583F5837A
:1003CF00E493FF1201CFE50825E025E0245125092C
:1003DF00F8E6FFE50825E025E024292509F8A6071A
:1003EF000509E509C39404409D0508E508C3940475
:0203FF0040912B
:0104010022D8
:1000FC00E53925E025E0243AF8E625E0FFA2A4E462
:10010C00334FFFE53925E025E0243AF8A607E53919
:10011C0025E025E0243BF8E625E0FFA2A5E4334FDB
:10012C00FFE53925E025E0243BF8A607E53925E075
:10013C0025E0243CF8E625E0FFA2A6E4334FFFE5DA
:10014C003925E025E0243CF8A607E53925E025E033
:10015C00243DF8E625E0FFA2A7E4334FFFE539255F
:10016C00E025E0243DF8A607E4FFE53925E025E08D
:10017C00243A2FF8E6540FFE700EE53925E025E001
:10018C0024512FF8E4F6800FBE0F0CE53925E0253D
:10019C00E024512FF876010FBF04CF0539533903F2
:1001AC00E53914600F14601114601324037013D21A
:1001BC00A0C2A322D2A3C2A222D2A2C2A122D2A1A5
:0201CC00C2A0CF
:0101CE00220E
:100402007580FFE54A14601C14602514602E146088
:100412003714604024057048C292C291C290054AC6
:10042200854B8022C292C291D290054A854C80228D
:10043200C292D291C290054A854D8022C292D29137
:10044200D290054A854E8022D292C291C290054A2C
:10045200854F8022D292C291D290E4F54A85508093
:010462002277
:03000B000204B636
:1004B600C0E0C0D075D000C000C006C007758CFC77
:1004C600758A671204021200FCD007D006D000D04D
:0404D600D0D0E03270
:100295000204FAE493A3F8E493A34003F68001F281
:1002A50008DFF48029E493A3F85407240CC8C3336A
:1002B500C4540F4420C8834004F456800146F6DF39
:1002C500E4800B0102040810204080900463E47E62
:1002D500019360BCA3FF543F30E509541FFEE4932E
:1002E500A360010ECF54C025E060A840B8E493A3F5
:1002F500FAE493A3F8E493A3C8C582C8CAC583CA20
:10030500F0A3C8C582C8CAC583CADFE9DEE780BED7
:0104B5000046
:10000E00EF8DF0A4A8F0CF8CF0A428CE8DF0A42E06
:02001E00FE22C0
:1000200075F008758200EF2FFFEE33FECD33CDCC97
:1000300033CCC58233C5829BED9AEC99E58298401A
:100040000CF582EE9BFEED9AFDEC99FC0FD5F0D6F7
:10005000E4CEFBE4CDFAE4CCF9A88222B800C1B921
:100060000059BA002DEC8BF084CFCECDFCE5F0CB5F
:10007000F97818EF2FFFEE33FEED33FDEC33FCEB98
:1000800033FB10D703994004EB99FB0FD8E5E4F953
:10009000FA227818EF2FFFEE33FEED33FDEC33FC40
:1000A000C933C910D7059BE99A4007EC9BFCE99A34
:1000B000F90FD8E0E4C9FAE4CCFB2275F010EF2F79
:1000C000FFEE33FEED33FDCC33CCC833C810D70779
:1000D0009BEC9AE899400AED9BFDEC9AFCE899F8B4
:0E00E0000FD5F0DAE4CDFBE4CCFAE4C8F92247
:0E00EE00C3E49FFFE49EFEE49DFDE49CFC2223
:0C051900EE30E707C3E49FFFE49EFE22E3
:00000001FF
