:0300000002037B7D
:0C037B00787FE4F6D8FD7581170203C2FC
:10043C00C0F9A4B0999282F88090FF9900000081D5
:02044C00C3E704
:100407000610FFFFFFFFFFFF01160001170001089D
:0E04170000010900020A0000040C00000000B1
:10042600D2AFC294758901758CFD758AD7D2A9D2CF
:060436008C1201A180FB05
:03000B0002000EE2
:0F000E00C0E0C083C082C0D075D000C000C00762
:10001D00C294758CFD758AD7050BE50B7002050A28
:10002D00C39483E50A9406400C750A00750B0075A0
:10003D0016017517017580FFE508B40F0040030226
:10004D000194900056F82828730200830200930251
:10005D0000A30200B30200C30200D30200E30201B9
:10006D0019020128020137020146020155020164FD
:10007D00020173020182D293C292C291C29005080D
:10008D00851080020194D293C292C291D29005083C
:10009D00851180020194D293C292D291C29005082B
:1000AD00851280020194D293C292D291D29005080A
:1000BD00851380020194D293D292C291C290050809
:1000CD00851480020194D293D292C291D2900508E8
:1000DD00851580020194D293D292D291C2900508D7
:1000ED00AF097401A807088002C333D8FCF4F5806A
:1000FD00E51664016003020194F5160509E509C3CF
:10010D0094085003020194750900807BC293C2923A
:10011D00C291C29005089004468068C293C292C2F3
:10012D0091D29005089004478059C293C292D29102
:10013D00C2900508900448804AC293C292D291D2CF
:10014D00900508900449803BC293D292C291C2900F
:10015D00050890044A802CC293D292C291D2900588
:10016D000890044B801DC293D292D291C290050883
:10017D0090044C800EC293D292D291D29075080009
:07018D0090044DE493F5809E
:0D019400D007D000D0D0D082D083D0E03290
:1001A100E517640160030202ACF517E50F2401F5C0
:1001B1000FE4350EF50EE4350DF50DE4350CF50CB7
:1001C100E47B0AFAF9F8AF0FAE0EAD0DAC0C1202DA
:1001D100E9743C2BF58274043AF583E493F510E459
:1001E1007B0AFAF9F8AF0FAE0EAD0DAC0C1202E9B5
:1001F100E47B0AFAF9F81202E9743C2BF5827404E3
:100201003AF583E493F511E47B64FAF9F8AF0FAEA4
:100211000EAD0DAC0C1202E9E47B0AFAF9F81202F8
:10022100E9743C2BF58274043AF583E493F512E406
:100231007BE87A03F9F8AF0FAE0EAD0DAC0C1202EC
:10024100E9E47B0AFAF9F81202E9743C2BF58274AD
:10025100043AF583E493F513E47B107A27F9F8AFB8
:100261000FAE0EAD0DAC0C1202E9E47B0AFAF9F8FF
:100271001202E9743C2BF58274043AF583E493F598
:10028100147BA07A8679017800AF0FAE0EAD0DAC6C
:100291000C1202E9E47B0AFAF9F81202E9743C2B28
:0B02A100F58274043AF583E493F51530
:0102AC00222F
:10038700020426E493A3F8E493A34003F68001F262
:1003970008DFF48029E493A3F85407240CC8C33377
:1003A700C4540F4420C8834004F456800146F6DF46
:1003B700E4800B0102040810204080900407E47ECB
:1003C700019360BCA3FF543F30E509541FFEE4933B
:1003D700A360010ECF54C025E060A840B8E493A302
:1003E700FAE493A3F8E493A3C8C582C8CAC583CA2D
:1003F700F0A3C8C582C8CAC583CADFE9DEE780BEE5
:0104250000D6
:1002AD0075F008758200EF2FFFEE33FECD33CDCC08
:1002BD0033CCC58233C5829BED9AEC99E58298408B
:1002CD000CF582EE9BFEED9AFDEC99FC0FD5F0D668
:1002DD00E4CEFBE4CDFAE4CCF9A88222B800C1B992
:1002ED000059BA002DEC8BF084CFCECDFCE5F0CBD0
:1002FD00F97818EF2FFFEE33FEED33FDEC33FCEB09
:10030D0033FB10D703994004EB99FB0FD8E5E4F9C3
:10031D00FA227818EF2FFFEE33FEED33FDEC33FCB0
:10032D00C933C910D7059BE99A4007EC9BFCE99AA4
:10033D00F90FD8E0E4C9FAE4CCFB2275F010EF2FE9
:10034D00FFEE33FEED33FDCC33CCC833C810D707E9
:10035D009BEC9AE899400AED9BFDEC9AFCE899F824
:0E036D000FD5F0DAE4CDFBE4CCFAE4C8F922B7
:00000001FF
