:030000000200A15A
:0C00A100787FE4F6D8FD7581200200E8AD
:10017900C0F9A4B0999282F880908883C6A1868E2E
:0A018900C181C1800108FF0109FFD8
:10000E00D202D203E4FFD2AFC294D293C292C29173
:10001E00C290758901758CF8758ACDD2A9D28C756E
:10002E00A0F7FD3395E0FCED2479F58274013CF5E3
:10003E0083E493F580A201300201B3502620021F03
:10004E000FC3EF6480948A4002E4FFEFFD3395E026
:10005E00FC74792DF58274013CF583E493F580A24E
:10006E00019202A200300301B350CA20031F1FC326
:10007E00EF6480948050027F09EFFD3395E0FC74AD
:10008E00792DF58274013CF583E493F580A20092FC
:03009E000380A23A
:03000B0002012DC2
:09012D00C0E0C0D075D000C0078D
:10013600758CF8758ACDE50825E0FFA2A7E4334F54
:10014600F508E50925E0FFA2A5E4334FF509E50822
:100156007004C2018007E508B4FF02D201E5097008
:0C01660004C2008007E509B4FF02D200CB
:07017200D007D0D0D0E0322D
:1000AD0002000EE493A3F8E493A34003F68001F25B
:1000BD0008DFF48029E493A3F85407240CC8C33354
:1000CD00C4540F4420C8834004F456800146F6DF23
:1000DD00E4800B0102040810204080900189E47E29
:1000ED00019360BCA3FF543F30E509541FFEE49318
:1000FD00A360010ECF54C025E060A840B8E493A3DF
:10010D00FAE493A3F8E493A3C8C582C8CAC583CA09
:10011D00F0A3C8C582C8CAC583CADFE9DEE780BEC1
:01019300006B
:00000001FF
