:03000000020353A5
:0C035300787FE4F6D8FD75813A02039A29
:1002C300C3C9CCCFCFCFCF00C3999CCFF3F9FC8167
:1002D300C1BFBF8FF18FBFC1E7C38100E7E7E7E786
:1002E3008793999E009F9F9FC3DBFBC3DFDDE3FFE3
:1002F300C7F3F9EDD5D9DBE7F7F3F10000F1F3F735
:10030300819F9FCFE7F3F9F9C3DBDBC3E7DBDBC3F4
:1003130081BDBD81BFBFBF81E7E7E7E70081C3E7D9
:10032300C399BDBDBDBD99C324B6B6A4A4AEAE24C6
:100333009F9F9F9B998080F9EFCF8F00008FCFEF16
:10034300010101010101010101010101010101019A
:10047800101B01010101010101010101010101013B
:1004880001010108001009FFFFFFFFFFFFFFFFFF49
:0A049800FFFFFFFFFFFFFF01190047
:1003DF00782B7C007D007BFF7A0379437E007F10B2
:1003EF001200DED2AFC294C293C292C291C2907574
:1003FF008901758CFC758A67D2A9D28CE4FFE4FE63
:10040F00EF25E025E0241B2EF8E6FDEF25E025E0A3
:10041F00242B2EF8E6FC6D6016EC6008EF25E02526
:10042F00E02EF51AEF25E025E0242B2EF8A6050E79
:09043F00BE04CD0FBF04C780C349
:1001F000E50825E025E02409F8E625E0FFA2A4E4CF
:10020000334FFFE50825E025E02409F8A607E508B7
:1002100025E025E0240AF8E625E0FFA2A5E4334F17
:10022000FFE50825E025E0240AF8A607E50825E013
:1002300025E0240BF8E625E0FFA2A6E4334FFFE516
:100240000825E025E0240BF8A607E50825E025E0D1
:10025000240CF8E625E0FFA2A7E4334FFFE50825CC
:10026000E025E0240CF8A607E4FFE50825E025E0FA
:1002700024092FF8E6540FFE700EE50825E025E06E
:10028000241B2FF8E4F6800FBE0F0CE50825E025AF
:10029000E0241B2FF876010FBF04CF050853080395
:1002A000E50814600F14601114601324037013D256
:1002B000A0C2A322D2A3C2A222D2A2C2A122D2A1B0
:0202C000C2A0DA
:0102C2002219
:100104007580FFE519B4080040030201EF9001185F
:10011400F8282873020130020148020160020177C5
:1001240002018E0201A50201BC0201D3C292C29156
:10013400C2900519E51A75F008A424C3F582E434C5
:10014400020201E9C292C291D2900519E51A75F032
:1001540008A424C4F582E434020201E9C292D291D3
:10016400C2900519E51A75F008A424C5F582E43493
:10017400028072C292D291D2900519E51A75F008E4
:10018400A424C6F582E43402805BD292C291C29068
:100194000519E51A75F008A424C7F582E434028031
:1001A40044D292C291D2900519E51A75F008A4249C
:1001B400C8F582E43402802DD292D291C2900519FE
:1001C400E51A75F008A424C9F582E434028016D235
:1001D40092D291D290E4F519E51A75F008A424CAD4
:0B01E400F582E43402F583E493F5801B
:0101EF0022ED
:03000B00020448A4
:10044800C0E0C0F0C083C082C0D075D000C000C07A
:1004580006C007758CFC758A671201041201F0D07A
:1004680007D006D000D0D0D082D083D0F0D0E032F0
:10035F000203DFE493A3F8E493A34003F68001F2D2
:10036F0008DFF48029E493A3F85407240CC8C3339F
:10037F00C4540F4420C8834004F456800146F6DF6E
:10038F00E4800B0102040810204080900478E47E82
:10039F00019360BCA3FF543F30E509541FFEE49363
:1003AF00A360010ECF54C025E060A840B8E493A32A
:1003BF00FAE493A3F8E493A3C8C582C8CAC583CA55
:1003CF00F0A3C8C582C8CAC583CADFE9DEE780BE0D
:0104A2000059
:10000E00E709F608DFFA8046E709F208DFFA803ED4
:10001E0088828C83E709F0A3DFFA8032E309F608C1
:10002E00DFFA8078E309F208DFFA807088828C8329
:10003E00E309F0A3DFFA806489828A83E0A3F608DD
:10004E00DFFA805889828A83E0A3F208DFFA804CB7
:10005E0080D280FA80C680D4806980F2803380108E
:10006E0080A680EA809A80A880DA80E280CA8033F7
:10007E0089828A83ECFAE493A3C8C582C8CCC5836F
:10008E00CCF0A3C8C582C8CCC583CCDFE9DEE7803F
:10009E000D89828A83E493A3F608DFF9ECFAA9F0BE
:1000AE00EDFB2289828A83ECFAE0A3C8C582C8CC14
:1000BE00C583CCF0A3C8C582C8CCC583CCDFEADE2D
:1000CE00E880DB89828A83E493A3F208DFF980CC8F
:1000DE0088F0EF60010E4E60C388F0ED2402B40488
:1000EE000050B9F582EB2402B4040050AF2323452F
:0600FE00822390005E73F6
:00000001FF
